:100000000C94DE1B0C940F1C0C940F1C0C940F1CF6
:100010000C940F1C0C940F1C0C940F1C0C940F1CB4
:100020000C940F1C0C940F1C0C940F1C0C940F1CA4
:100030000C940F1C0C940EC60C940F1C0C940F1CEB
:100040000C940F1C0D9474010C940F1C0C940F1C39
:100050000C940F1C0C940F1C0C94A6B20C94C4C5E9
:100060000C940F1C0C940C390C9402390C940F1C3A
:100070000C940F1C0C940F1C0C940F1C0C940F1C54
:100080000C940F1C0C940F1C0C940F1C0C940F1C44
:100090000C940F1C0C940F1C0C940F1C0C940F1C34
:1000A0000C940F1C0C940F1C0C940F1C0C940F1C24
:1000B0000C940F1C0C940F1C0C940F1C0C940F1C14
:1000C0000C940F1C0C940F1C0C940F1C0C940F1C04
:1000D0000C940F1C0C940F1C0C940F1C0C940F1CF4
:1000E0000C940F1C7E368336883692369C36153734
:1000F000A636AE36B636C036CA36D436E336ED3618
:100100001537F73601370B37987CA57CBA7CC77C4E
:10011000E47CF97C067D177D287D417D5A7D737DC9
:100120008C7DA97DC67D750189015901EF007301A0
:10013000F1015702FD00D301B3024302250257012A
:100140006701F300BB01F300F300F300F300F300D9
:10015000F300F300F300F300F300F300F300F30007
:10016000F300F300F300F300F300F300F300F300F7
:10017000F300F300F300F300F3008F01F300F3004A
:10018000F300F300F300F300F300F3001101F300B8
:10019000F300F300F300F300F300F300F300F300C7
:1001A000F300D901C101E501A10159029102310118
:1001B0004F018F02E50011022D023301AF01190238
:1001C0006D014F0117019F0265020D94711E0C9481
:1001D00098940C94AF5E0D94423E0C94F7360D94B7
:1001E000B7110C94E85E0D943F190C9414CE0C9446
:1001F000EA8E0C94EB630C9412920D94CF110C9434
:1002000024920C94198A0C944FC70C949DCB0C9497
:100210000CEC0C9478BA0C94828D0C949D940C94F4
:10022000177D0D94F71A0C94D1940C94A7910D940A
:10023000931E0C946A5E0C94E5C40C94A5F90C947E
:1002400071C70C94A6360C94DE5D0C9401370C94A7
:10025000D9C80C94265F0C94D4360C940B370C94AC
:10026000C55D0D94601E0D947F1E0C94E3910C945B
:100270001A5F0C9467C50C9405EC0C943E5E0C94CC
:10028000CB910C94CA360C9435600C942C960C943B
:1002900033920C947E390C94126B0C94B9890D94A2
:1002A000A01E0C9412EB0C9432960C94C8940D94EE
:1002B000E81A0D94BA110C9444600C947E360C9498
:1002C000417D0C94F75D0C943F570D9493180D9459
:1002D00006190C9479C70C9402990D948D1E0C94F8
:1002E00005EB0C943F630D94BD110D94D4110D9446
:1002F000130E0C94145F0C94DD910C9469610D94B1
:1003000090180C940E6B0C9489EE0C94F05E0C9487
:1003100054390D94B4110C946D8A0C94F97C0D949D
:100320001E1B0C94B5EB0C940C920C942DC80C94E1
:10033000965E0C94A97D0C940CED0C94146B0C94AB
:10034000AE360D94691E0C945A7D0C94565F0C9435
:100350008C7D0C94B2880C9489CB0D94430C0D9435
:10036000851E0C9495CB0C940E5F0D94603E0C94FE
:10037000F65E0C9492360D94241B0C94EA950C9422
:1003800068C70D943C190C940C6B0C94106B0C9476
:100390005FBA0C94A1CB0C94E3360C9410EB0C9444
:1003A00085510D94830A0D94C6110C94375F0C94FB
:1003B0008E940D943B1B0C94FA890C9453600C940E
:1003C000737D0C94B85E0C9453390D94661E0C9496
:1003D000287D0C94D7910C94E47C0C94FC5F0C94D5
:1003E000ADCB0D94C0110C9439630C94FC5E0C944D
:1003F000105E0C942B5E0C94FDEF0C94A57C0C9479
:100400003B630C9418920C94DB940C94C77C0C9472
:1004100091CB0C94B6360C947DC90C94E0390C94B5
:10042000E2EA0D94771E0C94A37E0C94B3890C948D
:100430000B600D94891E0C947EF10C9400920C9428
:1004400083360C94BA7C0C942C5F0D94CC110C94D4
:1004500057390C94FC670D9496180D947B1E0C94E0
:10046000DBCE0C94987C0C9491C50C942F960C9434
:10047000B58B0C94B6890C949C360C9467BA0C948A
:10048000C67D0C9433CE0D94C9110C942DCE0C94D2
:10049000ED360C9468970C9422EB0C94205F0C942E
:1004A000CA510C94A9940C94A7F10C9429920D9420
:1004B000C3110D94581E0C941A600C94A6880C94C9
:1004C00029600C9499CB0C9493940D949B1E0C94DE
:1004D000A9CB0C948B660C94B9910C9485CB0C949D
:1004E0007D5E0C94755F0C948DCB0C94B3510C9481
:1004F00015370D94910A0C9493BC0C94A5CB0C94D5
:1005000063BA0C942E920C9408CE0C9493570C94CE
:10051000C0360C94F2940C9490CC0C9419C50D94A4
:100520006D1E0D945C1E0C94DB5F0C94025F0C94AA
:1005300038920C94085F0C94067D0C943CC70D9483
:10054000971E0C9406920C9482660C940EEB0C94FD
:100550003D630C947F590C94515E0C9440690C944B
:10056000C75E0C9473660D94E1110C94E1EA0C944F
:1005700088360C941E920C949C510C9427CE4E41BC
:100580004E494E495459494E46CDCCCC3D0AD7230D
:100590003C17B7D13877CC2B329595E6241FB14F55
:1005A0000A000020410000C84200401C4620BCBE9A
:1005B0004CCA1B0E5AAEC59D7400407A10F35A0007
:1005C000A0724E18090010A5D4E80000E87648177C
:1005D0000000E40B54020000CA9A3B000000E1F561
:1005E00005000080969800000040420F000000A027
:1005F0008601000000102700000000E80300000052
:10060000006400000000000A00000000000100007B
:100610000000002C76D888DC674F0823DFC1DFAEEE
:1006200059E1B1B796E5E3E453C63AE651997696B7
:10063000E8E6C28426EB898C9B62ED407C6FFCEF80
:10064000BC9C9F40F2BAA56FA5F490055A2AF75CAE
:10065000936B6CF9676DC11BFCE0E40D47FEF52060
:10066000E6B500D0ED902E03009435770500808428
:100670001E080000204E0A000000C80C333333333C
:100680000F986E12831141EF8D2114893BE65516A8
:10069000CFFEE6DB18D1844B381BF77C1D901DA4E0
:1006A000BBE424203284725E228100C9F124ECA1D3
:1006B000E53D27434F4D4D554E49434154494F4E1B
:1006C0000044525952554E004552524F5253004920
:1006D0004E464F004543484F00536C6565702E2EC3
:1006E0002E004D65736820706F696E74206F75748D
:1006F000206F662072616E67650A00436C69636BE8
:1007000020746F20526573756D652E2E2E004E6F0E
:10071000204D6F76652E00456E642066696C6520FD
:100720006C6973740A00426567696E2066696C655E
:10073000206C6973740A004E6F206D656469610AEC
:1007400000286E6F2066696C6529004375727265BA
:100750006E742066696C653A20005344207072699B
:100760006E74696E67206279746520004E6F742024
:100770005344207072696E74696E670A0025697946
:1007800020256964202569682025696D2025697305
:10079000005072696E742074696D653A20004520BE
:1007A0002553006F66660044454255473A004D3177
:1007B00031322053687574646F776E004D31313378
:1007C0002053005A394D33204F46462E00434841AE
:1007D0004D4245525F54454D504552415455524546
:1007E00000424142595354455050494E47004152EE
:1007F0004353004D4F54494F4E5F4D4F44455300B6
:10080000544845524D414C5F50524F544543544912
:100810004F4E004C4F4E475F46494C454E414D456B
:10082000004155544F5245504F52545F53445F530B
:100830005441545553005344434152440050524F85
:100840004D50545F535550504F525400454D4552F2
:1008500047454E43595F504152534552004341531F
:10086000455F4C494748545F4252494748544E45BA
:10087000535300544F47474C455F4C4947485453E6
:1008800000534F4654574152455F504F5745520011
:100890004255494C445F50455243454E54004C45E7
:1008A00056454C494E475F44415441005A5F5052AF
:1008B0004F42450052554E4F5554004155544F4CF0
:1008C0004556454C005052494E545F4A4F420050E5
:1008D000524F4752455353004155544F5245504F84
:1008E00052545F54454D5000564F4C554D4554524F
:1008F00049430042494E4152595F46494C455F5475
:1009000052414E534645520053455249414C5F585F
:100910004F4E5F584F4646004649524D574152454B
:100920005F4E414D453A4D61726C696E206D61724A
:100930006C696E2D322E302E3820284E6F76203185
:100940003720323032302031333A32313A353129A2
:1009500020534F555243455F434F44455F55524CDA
:100960003A68747470733A2F2F6769746875622ED1
:10097000636F6D2F4D61726C696E4669726D776140
:1009800072652F4D61726C696E2050524F544F4307
:100990004F4C5F56455253494F4E3A312E30204D01
:1009A000414348494E455F545950453A5A394D33B1
:1009B0002045585452554445525F434F554E543A82
:1009C0003120555549443A63656465326132662D7C
:1009D000343161322D343734382D396231322D6360
:1009E00035356336326633363766660A002F2F2078
:1009F000004D31343520533C696E6465783E206F7C
:100A00007574206F662072616E67652028302D3105
:100A1000290A00416363656C65726174696F6E3A9F
:100A200020500046523A0020466C6F773A20002052
:100A3000643A0020693A0020703A00496E76616C91
:100A400069642065787472756465720A0046696C21
:100A5000616D656E742072756E6F75742064697354
:100A600074616E636520286D6D293A200046696CBB
:100A7000616D656E742072756E6F757420004D34F3
:100A8000323120696E636F727265637420706172B7
:100A9000616D657465722075736167650A004F66E4
:100AA0006673657473204170706C6965640045728B
:100AB000723A20546F6F206661722100546F6F206C
:100AC0006661722066726F6D207265666572656E12
:100AD000636520706F696E740A00454550524F4D32
:100AE000204F4B0A00506F7765722D6C6F73732027
:100AF0007265636F766572792000446F6E65207051
:100B000072696E74696E672066696C650A004D379C
:100B100037004D333100D406CF06C806C106B306F0
:100B20004572726F722077726974696E6720746F94
:100B300020454550524F4D210A004D323930004D6D
:100B4000343130004D313132004D313038005354A2
:100B50004F505045442E20005072696E74657220CB
:100B600073746F707065642064756520746F2065A0
:100B700072726F72732E20466978207468652065E2
:100B800072726F7220616E6420757365204D393901
:100B90003920746F20726573746172742E2028542A
:100BA000656D706572617475726520697320726518
:100BB0007365742E205365742069742061667465B2
:100BC000722072657374617274696E67290A004ECF
:100BD0006F20436865636B73756D20776974682057
:100BE0006C696E65206E756D6265722C204C617348
:100BF00074204C696E653A2000636865636B737599
:100C00006D206D69736D617463682C204C61737421
:100C1000204C696E653A20004C696E65204E756DFA
:100C2000626572206973206E6F74204C617374204A
:100C30004C696E65204E756D6265722B312C204CAF
:100C4000617374204C696E653A20004D313130007B
:100C500053442072656164206572726F720A0021CC
:100C600021204B494C4C2063617573656420627987
:100C7000204B494C4C20627574746F6E2F70696EF6
:100C80000A002121204B494C4C2063617573656437
:100C900020627920746F6F206D75636820696E61C2
:100CA00063746976652074696D65202D20637572A3
:100CB00072656E7420636F6D6D616E643A200062C0
:100CC0007573793A2070617573656420666F722060
:100CD000696E7075740A00627573793A2070617577
:100CE00073656420666F7220757365720A006275A1
:100CF00073793A2070726F63657373696E670A0067
:100D00004D656469612052656D6F766564004D655F
:100D100064696120496E736572746564004D313099
:100D2000303053004D3630302054313700506C6530
:100D3000617365205265736574005052494E544585
:100D4000522048414C5445440025533A2025530035
:100D50004B494C4C45442E20005072696E746572AC
:100D60002068616C7465642E206B696C6C28292086
:100D700063616C6C6564210A00656E7175657565EB
:100D8000696E672022006F6B00526573656E643A6E
:100D9000200042656420436F6F6C696E672E2E2EB3
:100DA000004265642048656174696E672E2E2E00CE
:100DB00023646566696E652044454641554C545F21
:100DC000004B6420004B6920004B702000504944C8
:100DD000204175746F74756E652066696E697368FD
:100DE0006564212050757420746865206C6173748B
:100DF000204B702C204B6920616E64204B64206373
:100E00006F6E7374616E74732066726F6D206265AD
:100E10006C6F7720696E746F20436F6E66696775BB
:100E2000726174696F6E2E680A00504944204175E2
:100E3000746F74756E65206661696C6564212074D9
:100E4000696D656F75740A000A20436C617373697C
:100E50006320504944200A00204B643A2000204B74
:100E6000693A2000204B703A20002054753A200047
:100E7000204B753A2000206D61783A2000206D6982
:100E80006E3A200020643A200020626961733A20A3
:100E900000504944204175746F74756E65207374F9
:100EA0006172740A00504944204175746F74756E04
:100EB00065206661696C6564212054656D7065729A
:100EC000617475726520746F6F20686967680A00C5
:100ED000504944204175746F74756E6500504944E3
:100EE000204175746F74756E65206661696C656408
:100EF0002120426164206578747275646572206E89
:100F0000756D6265720A004572723A2075746638B2
:100F100020666F6E74206E6F7420696E69746961EB
:100F20006C697A65642E00000C0F00FE0702250331
:100F3000BB017FFE08FE08FE05080806000040F021
:100F4000C88888987810050808060000C0F88888C6
:100F5000888888F80505050600012030F83020054E
:100F600008080600002070F820202020E00509096C
:100F70000600FF2070A8A8B888887020070505071C
:100F80000001D86C366CD80509090600FFF8A8885E
:100F900088888888A8F8050A0A0600FE2050505064
:100FA0005088A8A8887003030306000340A040FFF0
:100FB000FFFFFFFFFFFFFFFFFFFFFFFFFFFFFFFF41
:100FC000FFFFFFFFFF0000000605FF010707060205
:100FD0000080808080800080030303060105A0A0BC
:100FE000A005060606000050F85050F85005090903
:100FF0000600FF2070A8A07028A87020050707062B
:101000000000C8C810204098980507070600004057
:10101000A0A040A890680103030602058080800319
:1010200009090601FF2040408080804040200309DC
:10103000090601FF8040402020204040800507072E
:1010400006000020A8702070A820050505060001F4
:101050002020F820200203030601FFC04080050184
:1010600001060003F8020202060100C0C0050707DE
:101070000600000810102040408005070706000009
:10108000708898A8C8887003070706010040C04010
:10109000404040E005070706000070880810204027
:1010A000F8050707060000F80810300888700507E3
:1010B0000706000010305090F810100507070600D2
:1010C00000F880F008088870050707060000304027
:1010D00080F0888870050707060000F808101020C7
:1010E0002020050707060000708888708888700532
:1010F000070706000070888878081060020505065A
:101100000100C0C000C0C00206060601FFC0C0004A
:10111000C0408003050506010120408040200503F2
:1011200003060002F800F8030505060101804020CF
:101130004080050707060000708810202000200569
:1011400007070600007088B8A8B880700507070672
:101150000000708888F8888888050707060000F076
:101160004848704848F005070706000070888080EE
:10117000808870050707060000F04848484848F096
:10118000050707060000F88080F08080F805070753
:10119000060000F88080F0808080050707060000C8
:1011A0007088808098887005070706000088888806
:1011B000F8888888030707060100E0404040404067
:1011C000E0050707060000381010101090600507B2
:1011D000070600008890A0C0A090880507070600B9
:1011E00000808080808080F805070706000088D88E
:1011F000A8888888880507070600008888C8A898F6
:101200008888050707060000708888888888700528
:101210000707060000F08888F08080800507070631
:10122000000070888888A89068050707060000F00D
:101230008888F0A0908805070706000070888070F5
:10124000088870050707060000F8202020202020CD
:1012500005070706000088888888888870050707C2
:10126000060000888888885050200507070600007F
:1012700088888888A8A85005070706000088885035
:101280002050888805070706000088885020202005
:1012900020050707060000F80810204080F8030921
:1012A000090601FFE080808080808080E0050707DC
:1012B000060000804040201010080309090601FFC5
:1012C000E020202020202020E00503030600052048
:1012D00050880501010600FEF8030303060105809E
:1012E0004020050505060000700878887805070786
:1012F0000600008080F0888888F00505050600005B
:1013000070808088700507070600000808788888C4
:1013100088780505050600007088F08070050707CD
:10132000060000304840E04040400507070600FE48
:10133000708888887808700507070600008080F0AC
:10134000888888880307070601004000C0404040A5
:10135000E00409090601FE10003010101010906022
:1013600005070706000080808890E0908803070743
:10137000060100C04040404040E005050506000071
:10138000D0A8A8A8A8050505060000B0C8888888C8
:1013900005050506000070888888700507070600A7
:1013A000FEF0888888F080800507070600FE7888B0
:1013B0008888780808050505060000B0C880808088
:1013C00005050506000078807008F005070706008F
:1013D000002020F820202018050505060000888838
:1013E000889868050505060000888888502005054E
:1013F000050600008888A8A8500505050600008895
:10140000502050880507070600FE88888850204035
:1014100080050505060000F8102040F803090906BC
:1014200001FF204040408040404020010909060261
:10143000FF8080808080808080800309090601FF12
:1014400080404040204040408005030306000248A1
:10145000A890FF507265737320627574746F6E206C
:10146000746F2068656174206E6F7A7A6C650A000B
:101470004F46460A0046616465204865696768749E
:101480002000426564204C6576656C696E672000BB
:101490004661696C656420746F20656E61626C657D
:1014A00020426564204C6576656C696E670A004968
:1014B0006E76616C6964206D6573682E0A005072E7
:1014C0006F62696E6720506F696E74002553202526
:1014D000692F25690050726F62696E67206D6573B0
:1014E0006820706F696E7420004F666673657420A3
:1014F000636174636865642021006661696C2C20F7
:101500006D616E75616C206C6576656C0046616915
:101510006C21204D6F766520646F776E2050726F5E
:1015200062652E00546F206361746368206F666685
:1015300073657400202844525952554E2900473291
:1015400039204175746F20426564204C6576656C66
:10155000696E67003F20284C2C522C462C422920D3
:101560006F7574206F6620626F756E64732E0A004B
:101570003F2856296572626F7365206C6576656CCD
:1015800020696D706C61757369626C652028302DFF
:1015900034292E0A00426164205A2076616C7565F8
:1015A0000A004E6F2062696C696E65617220677215
:1015B00069640A00456E636C6F73757265005275DD
:1015C0006E6F75742044697374206D6D004C6F618B
:1015D00064206D6D00556E6C6F6164206D6D00460A
:1015E000696C2E204469612E004520696E206D6D66
:1015F000C2B3004D33303320553120452569205387
:10160000256900504944204175746F74756E6520DA
:101610002A005049442D44202A005049442D492095
:101620002A005049442D50202A00452073746570CB
:10163000732F6D6D005A2053746570732F6D6D009C
:10164000592053746570732F6D6D00582053746565
:1016500070732F6D6D00496E6974004D343238001F
:10166000496E697469616C697A6520454550524FCD
:101670004D0050726F6265204F666673657473002B
:10168000416363656C65726174696F6E0056656C69
:101690006F636974790053657420486F6D65204FDE
:1016A000666673657473004E65787420436F726E5E
:1016B000657200446F6E65004E65787400486F6D0A
:1016C000696E672058595A0046616465204865690B
:1016D000676874004C6576656C204265640047322B
:1016E000380A473239004361746368205A204F66D4
:1016F0006673657400473239204E004C6576656C20
:1017000020436F726E657273005654726176204D7D
:10171000696E00566D696E00566D61782045005601
:101720006D6178205A00566D6178205900566D61C0
:1017300078205800416D6178204500416D61782026
:101740005A00416D6178205900416D617820580040
:10175000412D54726176656C00412D526574726141
:10176000637400416363656C0056652D4A65726B56
:1017700000565A2D4A65726B0056592D4A65726B98
:101780000056582D4A65726B0050726F6265205981
:10179000204F66667365740050726F626520582032
:1017A0004F666673657400204D3932205800202042
:1017B0004D61783A200020204D696E3A2000536F29
:1017C000667420656E6473746F70733A2000252907
:1017D00000257C00203B2043757272656E74205A90
:1017E00000203B20456E6400203B205374617274DE
:1017F000004772616469656E74204D6978200052FB
:10180000616E646F6D204D697820004D3234205335
:10181000256C642054256C64004739322E392045EC
:10182000257300473120462564004739322E392080
:101830005A2573004731205A302046323030004755
:10184000312058257320592573204633303030001D
:101850004731204525642046323030004D31303646
:101860002050256920532569004D313039205325FA
:1018700069004D31393020532569004D3230302018
:101880004425730047323852305859004739322EB8
:1018900039204530205A300A47315A2573004D34DB
:1018A0003230205330205A300020496E76616C6906
:1018B00064206578747275646572200020496E76C4
:1018C000616C6964204520737465707065722000D6
:1018D00020452073746570706572206E6F7420737C
:1018E00070656369666965640A006563686F3A00DC
:1018F0004572726F723A0042696C696E656172205E
:101900004C6576656C696E6720477269643A0A00B7
:10191000507265737320627574746F6E20746F20DB
:10192000726573756D650A00436F6E6669677572DF
:101930006174696F6E00526573756D6520507269D0
:101940006E740053746F70205072696E740042613F
:10195000636B0053746F70004E6F204D6564696156
:10196000004368616E6765204D65646961004D32B2
:10197000310053776974636820506F776572204F28
:101980006666004D3831004368616E6765204669C0
:101990006C616D656E740041626F75742050726980
:1019A0006E7465720054756E6500506175736520C4
:1019B0005072696E7400496E666F2053637265657C
:1019C0006E005374617274205072696E74004361CA
:1019D0006E6E6F7420656E746572207375626469D3
:1019E000723A2000022E2E005265766572736520D1
:1019F0004772616469656E74002020456E642056EC
:101A00002D746F6F6C00537461727420562D746F57
:101A10006F6C004D69786572003F0043616E6365CD
:101A20006C004D6F74696F6E002020456E64205A03
:101A30003A002534642E2564206D6D005374617264
:101A400074205A3A004379636C65204D69780043ED
:101A50006F6D6D697420562D746F6F6C204D6978B1
:101A600000436F6D706F6E656E74203D00562D746F
:101A70006F6F6C73205765726520526573657400D3
:101A800052616E646F6D204D6978003A64697361CC
:101A9000626C65003A20656E61626C650047726138
:101AA0006469656E744D697800526573657420567B
:101AB0002D746F6F6C730041637469766520562DC9
:101AC000746F6F6C0053657474696E677320537420
:101AD0006F726564002062797465733B2063726382
:101AE000200053657474696E67732053746F726558
:101AF00064202800454550524F4D20646174617345
:101B0000697A65206572726F722E0A002073746F95
:101B10007265642073657474696E6773207265748E
:101B2000726965766564202800202863616C63759E
:101B30006C6174656429210A0020213D200045451F
:101B400050524F4D20435243206D69736D61746351
:101B500068202D202873746F726564292000496EF7
:101B60006465783A200044494749504F5453204C0B
:101B70006F616465640A0044494749504F545320DB
:101B80004C6F6164696E670A00204D61726C696E0A
:101B90003D563832290A00454550524F4D20766552
:101BA0007273696F6E206D69736D6174636820284C
:101BB000454550524F4D3D000000A0C0000020C1DF
:101BC0000000000000009B4300009B430000C8434E
:101BD0007C3C3E5E2B3D3F2F5B5D3B2C2A225C0014
:101BE00020423A0020436F756E7420413A0045311F
:101BF00000626564002C2073797374656D207374C2
:101C00006F7070656421204865617465725F494436
:101C10003A2000544845524D414C2052554E4157B0
:101C2000415900546865726D616C2052756E617720
:101C300061790048656174696E67204661696C6509
:101C4000640048656174696E67206661696C6564EB
:101C500000202D20496E76616C696420657874726D
:101C600075646572206E756D62657220210A00458B
:101C700072723A204D415854454D50004D415854D0
:101C8000454D5020747269676765726564004572DE
:101C9000723A204D494E54454D50004D494E5445E1
:101CA0004D502074726967676572656400202F006B
:101CB0002042403A0020403A00001000AA03800071
:101CC000400100012C01B001220140021001F0028C
:101CD00002018003F8004004F500E004ED009005E7
:101CE000E4003006DD00E006D7008007D1003008B0
:101CF000CC00D008C7007009C300100ABE00B00AAB
:101D0000BB00500BB700900CB300D00DAA00B00F71
:101D1000A5005010A0001014960090169000101905
:101D20008C00501A8500301C820070227800B0238D
:101D3000750040256E0020276900A0296400502A04
:101D40005F00902B5A00D02C5500702D4F00E02ED4
:101D500048005031450030334100D03539006036FD
:101D6000370010373300F0382D00A0392700803CB1
:101D70001C00403D1700F03D1100703E0A00C03EBF
:101D80000500003F0000403FFBFF803FF6FFC03FE3
:101D9000F1FF5072696E742041626F727465640065
:101DA0004D323520500A4D32340050617573696EE2
:101DB000672E2E2E006F70656E00545249474745BE
:101DC0005245440066696C616D656E74007A5F709F
:101DD000726F6265007A5F6D696E00795F6D696E22
:101DE00000785F6D696E005265706F7274696E671E
:101DF00020656E6473746F70207374617475730AF8
:101E000000020000000000000000000000000000D0
:101E100000000000000000000000000000000000C2
:101E200000000000000000000000000000000000B2
:101E3000000007FFC3FF870187FF0FFCFFFC1E01A7
:101E4000FF8007FFC3FF87018FFF1FFCFFFC1E03FE
:101E5000FFC00000C600C7018C00180003006183AA
:101E600000C00001C600C7C18C00180003006183D8
:101E700000C000038600C6C18C0018000301806307
:101E800000C000070600C6618C00180003018063D3
:101E900000C0000E0600C6618C00180003018063BC
:101EA00000C0001C0600C6318FFE1FF803018063CE
:101EB000FFC000380600C6318FFE0FFC03018063AF
:101EC000FF8000700600C6198C00000C0301FFE3C0
:101ED0000C0000E00600C6198C00000C0301FFE3B3
:101EE000070001C00600C60D8C00000C03018063D2
:101EF000018003800600C60D8C00000C0301806386
:101F0000018007000600C6078C00000C03018063F7
:101F1000018006000600C6078C00000C03018063E8
:101F2000018007FFC3FF86038FFF1FFC030180634F
:101F3000018007FFC3FF860387FF1FF8030180634B
:101F40000180000000000000000000000000000010
:101F50000000000000000000000000000000000081
:101F60000000000000000000000000000000000071
:101F70000000000000000000000000000000000061
:101F80000000F0004A0110013B0130012C0140012A
:101F900027015001220170011D0190011801B001BB
:101FA0001301C0010E01F001090110020401300209
:101FB000FF006002FA009002F500C002F00000038A
:101FC000EB004003E6008003E100D003DC002004C6
:101FD000D700E004D200C005CD004006C800D006FE
:101FE000C3008007BE00F008B9004009B400C00972
:101FF000AF00B00AAA00B00BA500D00CA000000EE4
:102000009B00C01096005012910000148C00C01567
:102010008700B0178200B0197D00D01B7800001E29
:10202000730040206E0090226900F0246400402775
:102030005F0090295A00E02B5500102E50002030F0
:102040004B0010324600E033410090353C00103721
:10205000370070383200A0392D00B03A2800A03B7C
:102060002300603C1E00103D1900903D1400103EFE
:102070000F00703E0A00C03E0500003F0000403FD8
:10208000FBFF803FF6FFC03FF1FF2020506C616EE8
:102090006E657242756666657242797465733A2040
:1020A000002046726565204D656D6F72793A20009B
:1020B000436F6D70696C65643A204E6F76203137DE
:1020C00020323032300A00204C6173742055706425
:1020D000617465643A20323032302D31312D30391F
:1020E000207C20417574686F723A20285A4F4E4503
:1020F000535441522C2048616C6C79290A006D615F
:10210000726C696E2D322E302E380A004D61726C61
:10211000696E0020536F6674776172652052657333
:1021200065740A00205761746368646F67205265A4
:102130007365740A002042726F776E206F75742089
:1021400052657365740A002045787465726E616C1F
:102150002052657365740A00506F77657255700A76
:10216000006175746F25632E670047323858590037
:102170004D31303031006572726F72207772697440
:10218000696E6720746F2066696C650A00446F6E23
:102190006520736176696E672066696C652E0A003A
:1021A0004D323900456E6473746F7073002553208F
:1021B00025632025632025632025630020503A00F5
:1021C00020583A00656E6473746F70732068697488
:1021D0003A20004F6E0052756E6F75742053656E15
:1021E000736F7200554E4C4F41442046494C414D4F
:1021F000454E540046494C414D454E5420434841BC
:102200004E474500506F776572204F757461676562
:10221000004D36303020423020542569004D373093
:102220003120542569004D3730322054256900553E
:102230006E6C6F61642046696C616D656E74202AF6
:1022400000556E6C6F616420416C6C004D3730320C
:10225000004C6F61642046696C616D656E74202A64
:10226000004368616E67652046696C616D656E74D8
:10227000202A005075726765206D6F726500436F8C
:102280006E74696E756500524553554D45204F502B
:1022900054494F4E533A005052494E5420504155E4
:1022A0005345440020204E6F7A7A6C653A200052E4
:1022B000756E617761792057617463683A204F4683
:1022C0004600313330004245443A203130306B20F3
:1022D0007769746820342E376B2070756C6C2D759F
:1022E000700052756E617761792057617463683A46
:1022F000204F4E004D61782054656D7000323735A7
:10230000004D696E2054656D700045313A203130C2
:10231000306B207769746820342E376B2070756CB1
:102320006C2D7570005053550047656E657269637A
:102330000050726F746F636F6C00312E3000426119
:102340007564003131353230300068747470733A1E
:102350002F2F7777772E616C69657870726573734C
:102360002E636F6D2F6974656D2F333239363534B6
:1023700030363339362E68746D6C005A4F4E4553E3
:10238000544152205A5249425F56360042696C69A4
:102390006E656172204C6576656C696E6700457884
:1023A00074727564657273007777772E7A6F6E65D5
:1023B0007374617233642E636F6D005A394D33004C
:1023C000323032302D31312D3039006D61726C690F
:1023D0006E2D322E302E380056352E332E320054CC
:1023E0006865726D6973746F727300426F617264B5
:1023F00020496E666F005072696E74657220496E76
:10240000666F004D31303030005061726B696E671D
:102410002E2E2E0000005761697420666F720066D0
:10242000696C616D656E74206368616E67650074C8
:102430006F207374617274005761697420666F72E3
:102440000066696C616D656E7420756E6C6F616499
:1024500000004E6F7A7A6C652068656174696E67FA
:1024600000506C6561736520776169742E2E2E00B3
:1024700000507265737320627574746F6E00746FB0
:102480002068656174206E6F7A7A6C650000496E11
:10249000736572742066696C616D656E7400616E3F
:1024A0006420707265737320627574746F6E00744B
:1024B0006F20636F6E74696E756500576169742073
:1024C000666F720066696C616D656E74206C6F6119
:1024D000640000507265737320427574746F6E00EF
:1024E000746F20726573756D65207072696E74000B
:1024F000005761697420666F72207072696E740093
:10250000746F20726573756D652E2E2E00005761F5
:10251000697420666F720066696C616D656E742007
:102520007075726765000000004842000048420074
:102530000080400202040000A0400000A040000013
:10254000004000809D430000A0430000C843FFFFFF
:10255000FF5761726E696E673A20486F6D696E67EA
:102560002042756D702044697669736F72203C203B
:10257000310A00206C696D6974656420746F2000F5
:10258000204D6178200020746F6F206C6F6E672083
:10259000657874727573696F6E2070726576656E9A
:1025A0007465640A004D3834004175746F20486FBB
:1025B0006D650054656D706572617475726500417A
:1025C000425300504C41004261627973746570203F
:1025D0005A0046616E205370656564004E6F7A7ACA
:1025E0006C65004D61696E0044697361626C6520C1
:1025F000537465707065727300486F6D65205A0082
:102600004732385A00486F6D6520590047323859B3
:1026100000486F6D652058004732385800473238FF
:102620000050726568656174202420456E64005016
:1026300072656865617420242042656400436F6F91
:102640006C646F776E005072656865617420240059
:10265000546F74616C00466C6F7700C325BF2520F2
:1026600053697A653A200043616E6E6F74206F7013
:10267000656E207375626469722000534420496E50
:102680006974204661696C00534420636172642060
:102690006F6B0A006F70656E526F6F7420666169B0
:1026A0006C65640A00766F6C756D652E696E697471
:1026B000206661696C65640A004E6F205344206394
:1026C0006172640A004D32332025730046696C65DF
:1026D0002073656C65637465640A0046696C6520E7
:1026E0006F70656E65643A2000454E442053554234
:1026F000524F5554494E450A002220706F730022F4
:1027000020706172656E743A2200535542524F55E3
:1027100054494E452043414C4C20746172676574A6
:102720003A220053756263616C6C204F7665726665
:102730006C6F77004578636565646564206D6178CA
:1027400020535542524F5554494E4520646570748C
:10275000683A310A0044656C6574696F6E20666181
:10276000696C65642C2046696C653A200046696C8A
:10277000652064656C657465643A006F70656E20F1
:102780006661696C65642C2046696C653A20005767
:10279000726974696E6720746F2066696C653A208F
:1027A00000667265736800646F696E67004E6F77CC
:1027B00020001FE0201020102010102010202010DA
:1027C000201030300840048003001FE03FF03FF04D
:1027D0003FF01FE01FE03FF03FF03FF00FC00780E9
:1027E00003003FFFF038007030FC3020FC102078F0
:1027F000102030102C00D02E31D02F7BD02F7BD04A
:102800002E31D02C00D020301020781020FC103039
:10281000FC303800703FFFF03FFFF0380070318629
:10282000302387102787902F87D02F03D020301098
:102830002078102078102030102F03D02F87D02739
:1028400087902387103186303800703FFFF01FFFDC
:10285000F81FFFF80410400208200208200410406E
:102860000820801041001041000820800410400022
:1028700000001FFFF81FFFF83300CC00CC12004807
:1028800000481200480048120048004813FFCFFFDC
:10289000C810000000081FFF83FFF8000FC7E0000A
:1028A000000FEFE0000003EF80000001EF000000E8
:1028B000006C000000000000002568753A253032E9
:1028C000687500256875642025303268753A2530B2
:1028D00032687500202020202020200024F4D430ED
:1028E00050C38E20C2A24017828B7011127A910DB4
:1028F000816CD90AA861E108C7586607615143068F
:102900001E4B5D05C145A7041A411104093D9803FA
:10291000713931034036DB0265339102D430540201
:10292000802E1D02632CEE01752AC501B028A0017E
:10293000102781018F2564012B244B01E0223401F3
:10294000AC211F018D200D01801FFC00841EED00B5
:10295000971DDF00B81CD200E61BC600201BBC0080
:10296000641AB200B219A8000A19A0006A189900E6
:10297000D117910040178B00B516840031167E00E8
:10298000B31579003A157300C7146F0058146A0024
:10299000EE1366008813630025135E00C7125B0008
:1029A0006C12570015125400C111510070114F00E4
:1029B00021114B00D61049008D10470046104400ED
:1029C00002104200C00F4000800F3E00420F3C004A
:1029D000060F3B00CB0E3800930E37005C0E35001F
:1029E000270E3400F30D3200C10D3100900D300080
:1029F000600D2E00320D2D00050D2C00D90C2B0082
:102A0000AE0C2900850C29005C0C2700350C270032
:102A10000E0C2600E80B2400C40B2400A00B23009E
:102A20007D0B23005A0B2100390B2100180B2000CD
:102A3000F80A1F00D90A1E00BB0A1E009D0A1D00CD
:102A4000800A1D00630A1C00470A1B002C0A1B0099
:102A5000110A1A00F7091A00DD091900C409190042
:102A6000AB091900920917007B09180063091700C8
:102A70004C09160036091600200916000A0915002F
:102A8000F5081500E0081400CC081400B80814007C
:102A9000A4081400900813007D0812006B081300AE
:102AA00058081200460812003408110023081100CB
:102AB0001208110001081100F0071000E0071000D3
:102AC000D0071000C0071000B0070F00A1071000CA
:102AD00091070E0083070F0074070F0065070E00B3
:102AE00057070E0049070E003B070D002E070E008A
:102AF00020070D0013070D0006070D00F9060C0056
:102B0000ED060D00E0060C00D4060C00C8060C0013
:102B1000BC060C00B0060C00A4060B0099060C00C5
:102B20008D060B0082060B0077060B006C060B006F
:102B300061060A0057060B004C060A0042060A000E
:102B400038060A002E060A0024060A001A060A00A1
:102B50001006090007060A00FD050900F405090032
:102B6000EB050900E2050900D9050900D0050900B7
:102B7000C7050900BE050900B5050800AD05080038
:102B8000A50509009C050800940508008C050800AF
:102B9000840508007C050800740508006C05070022
:102BA000650508005D050700560508004E0507008D
:102BB00047050700400508003805070031050700F4
:102BC0002A050700230507001C0506001605070057
:102BD0000F0507000805060002050700FB040600B4
:102BE000F5040700EE040600E8040600E20407000E
:102BF000DB040600D5040600CF040600C904060065
:102C0000C3040600BD040600B7040600B1040500B5
:102C1000AC040600A6040600A00405009B04060000
:102C200095040500900406008A040500850405004B
:102C3000800406007A040500750405007004050090
:102C40006B04050066040500610405005C040500D2
:102C500057040500520405004D0405004804050012
:102C6000430405003E0404003A0405003504050051
:102C7000300404002C04050027040400230405008C
:102C80001E0404001A0404001604050011040400C4
:102C90000D040400090405000404040000040400F9
:102CA000FC030400F8030400F4030400F003040030
:102CB000EC030400E8030400E4030400E003040060
:102CC000DC030400D8030400D4030400D003040090
:102CD000CC030400C8030300C503030024F404D993
:102CE000201BC40C5C0E9804C4095F0265077101C7
:102CF000F405F900FB04B30048048700C103690030
:102D00005803550003034500BE023A008402310017
:102D100053022A002902250004022000E4011C00BD
:102D2000C8011900AF0117009801140084011300B5
:102D3000710110006101100051010E0043010D00EE
:102D400036010B002B010B0020010B0015010900BF
:102D50000C01090003010800FB000800F300080053
:102D6000EB000700E4000600DE000600D8000600C5
:102D7000D2000600CC000500C7000500C200050017
:102D8000BD000400B9000400B5000400B100040057
:102D9000AD000400A9000400A5000300A200030088
:102DA0009F0004009B0003009800030095000200B0
:102DB00093000300900003008D0002008B000300CD
:102DC00088000200860002008400030081000200E7
:102DD0007F0002007D0002007B00020079000200FB
:102DE000770001007600020074000200720001000A
:102DF000710002006F0002006D0001006C00020013
:102E00006A0001006900020067000100660001001D
:102E10006500010064000200620001006100010021
:102E2000600001005F0002005D0001005C00010025
:102E30005B0001005A000100590001005800010028
:102E40005700010056000100550001005400010028
:102E50005300000053000100520001005100010026
:102E6000500001004F0001004E0000004E00010024
:102E70004D0001004C0001004B0000004B00010020
:102E80004A0001004900010048000000480001001C
:102E90004700010046000000460001004500000018
:102EA0004500010044000100430000004300010010
:102EB000420000004200010041000000410001000A
:102EC000400001003F0000003F0001003E00000004
:102ED0003E0001003D0000003D0001003C000000FC
:102EE0003C0000003C0001003B0000003B000100F2
:102EF0003A0000003A0001003900000039000100EA
:102F000038000000380000003800010037000000E1
:102F100037000100360000003600000036000100D6
:102F200035000000350000003500010034000000CD
:102F300034000000340001003300000033000000C2
:102F400033000100320000003200000032000100B6
:102F500031000000310000003100010030000000AD
:102F600030000000300001002F0000002F000000A2
:102F70002F0000002F0001002E0000002E00000096
:102F80002E0001002D0000002D0000002D0000008B
:102F90002D0001002C0000002C0000002C0000007F
:102FA0002C0001002B0000002B0000002B00000073
:102FB0002B0001002A0000002A0000002A00000067
:102FC0002A0001002900000029000000290000005B
:102FD000290000002900010028000000280000004E
:102FE0002800000028000000280001002700000041
:102FF0002700000027000000270000002700010034
:103000002600000026000000260000002600000028
:10301000260001002500000025000000250000001A
:10302000250000002500000025000100240000000C
:1030300024000000240000002400000024000100FF
:1030400023000000230000002300000023000000F4
:1030500023000000230000002300010022000000E4
:1030600022000000220000002200000022000000D8
:1030700022000100210000002100000021000000CA
:1030800021000000210000002100000021000100BB
:1030900020000000200000002000000020000000B0
:1030A000200000002000000020000000200001009F
:1030B0001F0000001F0000001F0000001F00000094
:1030C0001F0000001F0000001F0001001E00000084
:1030D0001E0000001E0000001E000000A42C0000C6
:1030E000841E0000B0120000870A00009E05000048
:1030F000E90200007B010000BF0000004C6F61642A
:103100002053657474696E67730053746F72652021
:1031100053657474696E67730050726F6265205AEC
:10312000204F666673657400416476616E63656402
:103130002053657474696E677300556E726574729E
:10314000616374205600556E726574722E206D6D29
:1031500000486F70206D6D00526574726163742059
:10316000560052657472616374206D6D0041757410
:103170006F2D5265747261637400526573746F725F
:10318000652044656661756C74730050726568658E
:103190006174202420436F6E6600205A3A2000207C
:1031A000593A200042656420583A20005072696EF6
:1031B00074205061757365640050726F62696E6748
:1031C000204661696C65640A0050726F62696E67BF
:1031D000204661696C656400486F6D652025732524
:1031E00073257320466972737400496E7365727437
:1031F0002066696C616D656E7420616E642070720A
:1032000065737320627574746F6E0A0020573A00FC
:103210005A394D332052656164792E005072696EBF
:1032200074696E672E2E2E00220A00556E6B6E6F2B
:10323000776E20636F6D6D616E643A20220050726C
:10324000696E742066726F6D204D65646961004D12
:103250006F76652025736D6D004D6F766520302E7D
:10326000316D6D004D6F766520316D6D004D6F765F
:10327000652031306D6D004D6F7665204178697342
:10328000004578747275646572004D6F7665205ADA
:10329000004D6F76652059004D6F7665205800000F
:1032A000000A0B02090C0D0E0807030401000000C0
:1032B000000000000000000000000000000000000E
:1032C00000000000000000000000001211100000CB
:1032D00000000000000000000000000000000000EE
:1032E000000000000000002200250028002B002E16
:1032F000003100340002010000050108010B01004B
:10330000002100240027002A002D00300033000196
:10331000010000040107010A01050505050705086C
:10332000080808020202020A0A0808040404040148
:10333000010101010101010303030303030303046A
:103340000707070C0C0C0C0C0C0C0C0202020206FA
:10335000060606060606060B0B0B0B0B0B0B0B01EA
:103360000210202008081020401020408002010296
:10337000010804020101020408102040808040205E
:103380001008040201800402018040201008040299
:103390000108040201010204081020408001020417
:1033A000081020408020453A0020593A0020520061
:1033B000454550524F4D20496E697469616C697A78
:1033C00065640A0048617264636F646564204465E3
:1033D0006661756C742053657474696E6773204CF4
:1033E0006F616465640A003B200020204D36303355
:1033F000200020204D34313220530046696C616D2D
:10340000656E742072756E6F75742073656E736F60
:10341000723A0020550046696C616D656E74206CCF
:103420006F61642F756E6C6F6164206C656E67747C
:1034300068733A0020204D3835312058005A2D50FD
:10344000726F6265204F66667365740020204D328E
:1034500030392053004175746F2D52657472616369
:10346000743A20533D3020746F2064697361626C3C
:10347000652C203120746F20696E746572707265DE
:103480007420452D6F6E6C79206D6F7665732061A9
:103490007320726574726163742F7265636F7665F1
:1034A000720020204D3230382053005265636F7611
:1034B00065723A20533C6C656E6774683E20463CEA
:1034C000756E6974732F6D3E0020570020204D32B9
:1034D0003037205300526574726163743A20533C54
:1034E0006C656E6774683E20463C756E6974732F18
:1034F0006D3E205A3C6C6966743E0020204D34318C
:1035000033205300506F7765722D4C6F73732052C8
:1035100065636F766572793A0020204D3330312033
:1035200050005049442073657474696E67733A00A3
:1035300020460020480020204D3134352053004DD6
:103540006174657269616C20686561747570207062
:103550006172616D65746572733A00204A002020C3
:10356000473239205720490020204D343230205333
:10357000004175746F20426564204C6576656C6906
:103580006E673A0020204D323036205800486F6D6B
:1035900065206F66667365743A0020204D323035C1
:1035A000204200416476616E6365643A20423C6D5E
:1035B000696E5F7365676D656E745F74696D655F75
:1035C00075733E20533C6D696E5F6665656472611C
:1035D00074653E20543C6D696E5F74726176656CF3
:1035E0005F66656564726174653E20583C6D617804
:1035F0005F785F6A65726B3E20593C6D61785F79D8
:103600005F6A65726B3E205A3C6D61785F7A5F6AD3
:1036100065726B3E20453C6D61785F655F6A6572DF
:103620006B3E0020540020204D32303420500041A9
:103630006363656C65726174696F6E2028756E696D
:1036400074732F7332293A20503C7072696E745F24
:10365000616363656C3E20523C7265747261637491
:103660005F616363656C3E20543C74726176656C87
:103670005F616363656C3E0020204D32303120581D
:10368000004D6178696D756D20416363656C65728D
:103690006174696F6E2028756E6974732F73322997
:1036A0003A0020204D3230332058004D6178696D4A
:1036B000756D206665656472617465732028756E2A
:1036C0006974732F73293A005374657073207065A1
:1036D0007220756E69743A0020440020204D32300B
:1036E000302053002044697361626C65640A0046AF
:1036F000696C616D656E742073657474696E67734F
:103700003A0020204D3134392043203B20556E694A
:10371000747320696E2043656C736975730A0020A9
:10372000286D6D29002020473231202020203B20A9
:10373000556E69747320696E206D6D000000FA4348
:103740000000FA430000A0400000C8420000A04270
:103750000000A0420000C8430000B042B80B0000C7
:10376000B80B000064000000102700004361703AAD
:10377000003F5A206F7574206F662072616E676516
:103780002028003F59206F7574206F662072616E8B
:10379000676520282D003F58206F7574206F6620C4
:1037A00072616E676520282D0050726F6265204F30
:1037B0006666736574205800B501EB0011241FBEC6
:1037C000CFEFD1E2DEBFCDBF00E00CBF13E0A0E041
:1037D000B2E0EEEDFCE902E00BBF02C007900D92F3
:1037E000AE34B107D9F726E1AEE4B3E001C01D92D3
:1037F000A83FB207E1F71BE1CDEDDBE100E006C039
:1038000021970109802FFE010F94C54BCC3DD107B4
:1038100080E00807A9F70F94D1340D945D4E0C9405
:1038200000002F923F924F925F926F927F928F9201
:103830009F92AF92BF92CF92DF92EF92FF920F933F
:103840001F93CF93DF93CDB7DEB7A7970FB6F8944A
:10385000DEBF0FBECDBF8FA32091040F2EA311E0BA
:103860001093040F8091D0168D3409F4D0C38435A1
:1038700011F40C94882D873411F00C94B32D8091A1
:10388000CE169091CF168B31910509F463C1F4F4F3
:1038900088309105D1F14CF497FDB5C38230910584
:1038A000A4F1049709F412C1AEC38B30910509F459
:1038B0004CC18531910511F40C94B52D0A9709F08E
:1038C000A2C381E00E94897F0C94B52D8A329105B4
:1038D00009F4B9C254F48D31910509F465C10CF4B1
:1038E00053C14E9709F47EC18EC38B35910509F4FF
:1038F000F4C18C35910509F4F5C18A35910509F0BB
:1039000082C31092340F0C94B52D8091A50781309D
:1039100011F00C94B52D19821A821B821C82CE01E3
:1039200001965C012CEAE22E27E0F22E04E712E079
:1039300037E6C32E32E1D32E912C88E5890D0E9403
:103940006649F50181935F01882311F10E940F47B9
:103950002B013C01892D0E94746F882351F0F801DE
:103960002081318142815381C301B2010F94CE4B3A
:1039700009C0F6012081318142815381C301B20126
:103980000F94CD4BF70160837183828393830AC0C8
:10399000F80180819181A281B381F70180839183B5
:1039A000A283B3839394F4E0EF0EF11C0C5F1F4FDE
:1039B00024E0C20ED11C33E09312BFCF85E40E94F5
:1039C00066498C83882301F10E940F476B017C01BB
:1039D00083E00E94746F882371F0209180023091FF
:1039E00081024091820250918302C701B6010F9477
:1039F000CE4B6B017C01C092B807D092B907E09220
:103A0000BA07F092BB0710C08091800290918102AA
:103A1000A0918202B09183028093B8079093B90776
:103A2000A093BA07B093BB0780913516882381F025
:103A300080913B1382FF0CC08C81882349F08981DF
:103A4000811103C08A81882319F080E00F947510DA
:103A500040E050E0BA0186E40E94203E20E030E0E1
:103A6000A9010F94514D181684F40E940F4720E0CD
:103A700030E040E752E40F94514C6093670270933A
:103A800068028093690290936A02809114168823D9
:103A900011F40C94F02D85E40E944247882311F420
:103AA0000C94F02D88E50E94424781110C94F02D72
:103AB00089E50E94424781110C94F02D8AE50E940D
:103AC000424781110C94F02D0C94BE2D80E50E948C
:103AD0006649882329F00E9416456B017C0103C0CA
:103AE000C12CD12C760183E50E946649882361F0C0
:103AF0000E940F4720E030E04AE754E40F9430453D
:103B00000F94CA4C6B017C010E9472D080914E05CB
:103B1000811105C060E089ED96E00E94AEC40F946B
:103B2000EF1EC60ED71EE81EF91E0F94EF1EDC0115
:103B3000CB018C199D09AE09BF09B7FD02C00C94D9
:103B4000B52D80E00E944133F0CF80E00E94897F54
:103B50000C94B52D0F94711481110C94B52D8CE03B
:103B6000ECE9F2E0DE01119601900D928A95E1F701
:103B700060E070E080E50E940C76BE016F5F7F4FD1
:103B80000E9409C00C94B52D8091020F8770873078
:103B900011F00C941B2E60E08FE40E948E4981117D
:103BA0000C94B52D0C941B2E0F94EF1E609382166F
:103BB0007093831680938416909385160F947114D6
:103BC00081110C94B52D8091390F882311F40C9438
:103BD0008B2E60E08FE40E948E4981110C94B52DEC
:103BE0000C948B2E2091F60E3091F70E4091F80E2A
:103BF0005091F90E60917402709175028091760275
:103C0000909177020F94CE4BAB01BC0188E50E94E6
:103C1000203E69837A838B839C832091FA0E3091B6
:103C2000FB0E4091FC0E5091FD0E60917802709158
:103C3000790280917A0290917B020F94CE4BAB0176
:103C4000BC0189E50E94203E6D837E838F83988727
:103C5000BE016B5F7F4FCE0101960E9426458823EF
:103C600011F40C94B52D80E00E94B3820E94A5D877
:103C700061E085E40E948E4901E021E0482FBE0109
:103C80006B5F7F4FCE0101960F9429156B017C016C
:103C90009B01AC010F94CF4D811119C049815A810C
:103CA0006B817C8184EA91E30E9457884D815E811B
:103CB0006F8178858FE991E30E945788B701A6014B
:103CC0008AE991E30E9457888AE00E9415320E9497
:103CD0008CD80E942EBB0C94B52D8FE08093340FAE
:103CE0000C94B52D8091CD16882349F1893009F0C7
:103CF000A6C087EFA82E82E0B82E94E7E92E92E0C6
:103D0000F92ED12C00E010E0F50181915F010E94B5
:103D10006649882369F00E940F47F7016083718329
:103D200082839383133011F401E002C0DD24D39425
:103D30001F5FF4E0EF0EF11C143031F775C0B7EFE0
:103D40002B2EB2E03B2E1AE4E12E1FE0F12E24E7E9
:103D500032E03DA32CA307E6C02E02E1D02E00E006
:103D600010E0F10181911F010E946649882309F446
:103D70004AC00E940F472B013C01133049F0F60165
:103D800020813181428153810F94CD4B2B013C0125
:103D9000ECA1FDA12081318142815381C301B20197
:103DA0000F94CD4B4B015C012DEB37E346E855EB0F
:103DB0000F94514D87FD0AC02DEB37E346E855E3DC
:103DC000C501B4010F94CA441816ECF4133051F431
:103DD000409280025092810260928202709283022D
:103DE00001E011C0A5019401F70160817181828118
:103DF00093810F94CE4BF701608371838283938309
:103E0000812F0E94F0D41F5FF4E0EF0EF11C2CA173
:103E10003DA12C5F3F4F3DA32CA334E0C30ED11C2A
:103E2000143009F09ECF05C0DD2019F00E942CBB94
:103E300006C0002321F080E892E00E9407D30E9490
:103E40002EBB0C94B52D8091A507813011F00C94F8
:103E5000B52D89E40E946649E82E882321F00E944E
:103E60000B47082F01C000E08AE40E946649F82E43
:103E7000882321F00E940B47182F01C010E0EE208C
:103E800011F0043020F4FF2041F0143030F082EEC5
:103E900096E00E9496870C94B52D80E1E4E7F2E06D
:103EA000ACEAB7E001900D928A95E1F7EE2019F1A6
:103EB000602F000F770B880B990B0F94D144209142
:103EC00004163091051640910616509107160F946E
:103ED00030452091EF043091F0044091F10450916D
:103EE000F2040F94CE4B6093AC077093AD078093B0
:103EF000AE079093AF07FF2019F1612F110F770BD9
:103F0000880B990B0F94D144209108163091091613
:103F100040910A1650910B160F9430452091F304EE
:103F20003091F4044091F5045091F6040F94CE4B77
:103F30006093B0077093B1078093B2079093B30773
:103F400060E080E50E948E498823C1F1EE20D1F027
:103F50002091F60E3091F70E4091F80E5091F90E27
:103F60006091AC077091AD078091AE079091AF075B
:103F70000F94CD4B6093AC077093AD078093AE0761
:103F80009093AF07FF20D1F02091FA0E3091FB0EF5
:103F90004091FC0E5091FD0E6091B0077091B107F9
:103FA0008091B2079091B3070F94CD4B6093B00707
:103FB0007093B1078093B2079093B30740E050E04D
:103FC000BA0186E40E94203E6B017C0120E030E0D3
:103FD000A9010F94514D18164CF420E030E040E751
:103FE00052E4C701B6010F94514C03C060E070E089
:103FF000CB0169837A838B839C83CE0101960E94D7
:10400000C4D80C94B52D0F9492110C94B52D8091B9
:10401000CE169091CF168139910509F4EEC70CF0B8
:10402000FAC08335910509F40CC60CF082C08A31C0
:10403000910509F41FC3BCF58431910509F472C2DE
:104040007CF48131910509F459C22CF4029708F4EB
:104050001DC20C94852D429709F4FAC50C94852D48
:104060008731910509F493C294F48531910509F4DF
:104070008AC2469711F00C94852D0E94FDF3809121
:104080003B13877F806280933B130C94B52D88315E
:10409000910509F491C2499711F00C94852D0E9465
:1040A00032750C94B52D8032910509F45BC3F4F49C
:1040B0008D31910509F43FC384F48B31910509F4E6
:1040C000E7C24C9711F00C94852D8091CB169091FE
:1040D000CC160E9462F50C94B52D8E31910509F431
:1040E00031C34F9709F467C30C94852D8D34910526
:1040F00009F410C46CF48B34910509F407C48C34B2
:10410000910511F00C94852D0E94A9BC0C94B52D3D
:104110008135910509F47FC58235910511F00C9424
:10412000852D8091340F8F7D80618093340F0C94A6
:10413000B52D8F36910509F4A4C474F5893691051F
:1041400009F42FC484F48535910509F4B7C50CF43E
:104150007FC58C35910509F4D4C58836910509F4DD
:10416000DDC30C94852D8C36910509F4CFC454F42D
:104170008A36910509F429C48B36910509F463C484
:104180000C94852D8D36910509F4E9C38E36910581
:1041900009F464C40C94852D8637910509F4E8C6AA
:1041A000CCF48237910509F44AC654F4803791055E
:1041B00009F4B2C48137910509F4BBC40C94852D70
:1041C0008337910509F442C68537910509F4C0C6C5
:1041D0000C94852D8937910509F408C794F4873725
:1041E000910509F400C78837910511F00C94852DCD
:1041F00081E08093D1058093D0050E9411BC0C947E
:10420000B52D8D37910509F403C58C38910509F456
:10421000B5C40C94852D8039E1E09E0711F40C940F
:104220008D2B0CF085C08D3C910511F40C947929EF
:10423000BCF5873A910509F483C7C4F4833A910524
:1042400009F44FC734F48B39910509F4BBC40C94BD
:10425000852D843A910509F460C7863A910511F0DD
:104260000C94852D0E94D8760C94B52D893C91052F
:1042700009F4AEC754F48E3B910509F4A0C4883C00
:10428000910509F460C70C94852D8B3C910509F4C8
:10429000E0C78C3C910511F40C9448290C94852DB1
:1042A0008C3D910511F40C94352A04F5803D91055F
:1042B00011F40C94DE2964F48E3C910511F40C94F5
:1042C0007C298F3C910511F40C949A290C94852D2E
:1042D000813D910511F40C94282A833D910511F03C
:1042E0000C94852D0E94B8770C94B52D8C3221E06A
:1042F000920711F40C94F82A64F48D3D910511F4A1
:104300000C945C2A8232914011F40C94B12A0C94E2
:10431000852D8D32F1E09F0711F40C940D2B8F3217
:10432000914011F00C94852D0E94373E0C94B52DD0
:10433000873F31E0930711F40C94952C0CF04FC09B
:10434000843AF1E09F0711F40C94BC2B2CF58A39C8
:1043500031E0930709F4E9C394F48139F1E09F0750
:1043600011F40C94902B8239914011F00C94852D0E
:1043700080E00E9445A50E942EBB0C94B52D8C397F
:1043800031E0930711F40C94962B8D39914011F480
:104390000C944A2D0C94852D843FF1E09F0711F475
:1043A0000C948F2C6CF4853A31E0930711F40C9443
:1043B000BF2B8C3A914011F40C94322C0C94852D27
:1043C000853FF1E09F0711F40C94922C863F9140B9
:1043D00011F00C94852D0F94F2240C94B52D8E3B86
:1043E00032E0930711F40C94362D1CF58835F2E079
:1043F0009F0711F40C94BB2C6CF4883F31E09307B9
:1044000011F40C949D2C8C30924011F40C94AE2C31
:104410000C94852D8B35F2E09F0711F40C94BE2C83
:104420008D3B924011F00C94852D0E94CF720C941C
:10443000B52D873E33E0930711F40C943C2DCCF45A
:104440008335F3E09F0711F40C94392D803A9340A3
:1044500011F00C94852D2091CB163091CC169091B3
:104460003B13926090933B13C9010E9462F50C9438
:10447000B52D883E33E0930711F40C94642D893EEA
:10448000934011F40C94672D0C94852D80E50E94C7
:104490006649882329F00E9416456B017C0103C000
:1044A000C12CD12C760183E50E946649882361F0F6
:1044B0000E940F4720E030E04AE754E40F94304573
:1044C0000F94CA4C6B017C010E9472D08091CB1674
:1044D0009091CC16009721F061E00E9444C505C080
:1044E00060E08BEF96E00E94AEC440E0C701B601E9
:1044F0000E94C4380F94E3110C94B52D8091D1160D
:1045000084FF02C00C948E2E8091D31687FF02C0C8
:104510000C948E2E8091D416837011F00C948E2EF4
:104520000C94AB2E80913B1383FF25C086E297E06D
:104530000E94968780913B1383FF17C08AE593E121
:104540000E94EFAD8BE1EAE5F3E1DE011196019007
:104550000D928A95E1F760E070E0CE0101960E942D
:1045600063F8CE0101960E94714F87E197E00E94A7
:1045700096870C94B52D0E948C8887E397E00E9463
:1045800096870C94B52D0E94FEF70C94B52DE09102
:10459000CB16F091CC168081882329F0803209F463
:1045A00010823196F8CF60E08091CB169091CC16B6
:1045B0000E94AAF50C94B52D83E50E9466498823D4
:1045C00021F00E94D7460E944E4484E50E9466492D
:1045D0008823A9F00E94D7466B017C010E9454BC3D
:1045E000C0928405D0928505E0928605F0928705F9
:1045F000CD28CE28CF2819F081E080932D0F80910F
:10460000D40D8823F9F080E090E0A8E4B2E488A318
:1046100099A3AAA3BBA31C8E1D8E1E8E1F8E19826A
:104620001A821B821C8200E010E020E0AE01405E96
:104630005F4FBE01645E7F4FCE0101960E94C84F5E
:104640000C94B52D0E94CE30882381F00E940EF488
:104650000E946FBC89EC9FE00E94B3F31092D516C4
:104660001092D6161092D7161092D8160F94E31106
:104670000C94B52D80913B1383FD02C00C94B52D95
:1046800083E50E94664981110C94BA2E0C94B52DD5
:1046900083E40E944247882319F18BE497E00E944B
:1046A00096878091A114882391F0BE016F5F7F4FA0
:1046B0008EE994E10E94BBAD8E010F5F1F4FF801A0
:1046C00081918F01882339F00E941532F8CF81E45F
:1046D00097E00E9496878AE00E9415320C94B52DCF
:1046E00080913B1382FF21C08AE597E00E94968764
:1046F00060913713709138138091391390913A1368
:104700004AE00E941C328FE20E94153260913313FE
:104710007091341380913513909136134AE00E94C2
:104720001C320E941A330C94B52D8CE697E00E943F
:1047300096870C94B52D80913B138E7F80933B130D
:104740000C94B52D80913B1383FD02C00C94B52DC4
:104750000F947B118091CB169091CC160E9488F714
:104760000C94B52D80913B1382FD0E9472D08091F4
:104770003B1383FD02C00C94B52D60E080E50E94E0
:104780008E49182F682F8091CB169091CC160E94DD
:10479000AAF583E50E946649882321F00E94D74646
:1047A0000E944E440E940EF411110C94B52D0E94EB
:1047B0006FBC0C94B52D0E9420BC7B018C0120E8BD
:1047C00031E541E050E00F94204BC9016DE671E006
:1047D0000F949D4B4B015C01C801B70120E13EE005
:1047E00040E050E00F94204BCA01B90128E130E0CD
:1047F00040E050E00F94204B762E672EC62ED72E29
:10480000ACE32A2E312C412C512CC801B701A20156
:1048100091010F94204BF62EE72ECA01B901A20197
:1048200091010F94204BCB018E010F5F1F4F81141C
:10483000910499F0EF92FF927F936F936F927F9222
:10484000BF92AF929F928F928DE797E09F938F9345
:104850001F930F930F94624413C0A114B104B1F0DD
:10486000EF92FF927F936F936F927F92BF92AF927E
:1048700081E897E09F938F931F930F930F94624467
:104880000FB6F894DEBF0FBECDBF30C0CD2879F093
:10489000EF92FF927F936F936F927F9285E897E0FC
:1048A0009F938F931F930F930F946244E9CF892BAB
:1048B00069F0EF92FF927F936F9389E897E09F935F
:1048C0008F931F930F930F946244DACFEF92FF926E
:1048D0008DE897E09F938F931F930F930F946244FB
:1048E0000F900F900F900F900F900F9060E0C80105
:1048F0000E9444C50E948C88B80181E997E00E941B
:1049000075888AE00E9415320C94B52D0E946FBC08
:104910000C94B52D0E94BEBC0C94B52D8091810DD8
:1049200083FF02C00C94B52D89E40E946649882358
:1049300011F40C94BF2E0E94E74690E01816190659
:1049400014F481E090E026E0289FF001299FF00D0B
:104950001124EA5CF94E808191810C94CA2E8091D9
:10496000810D83FF02C00C94B52D89E40E94664935
:10497000882311F40C94D12E0E94E74690E018167B
:10498000190614F481E090E026E0289FF001299FA9
:10499000F00D1124EA5CF94E8081918110E00C94B5
:1049A000E22E0E944B6F182F87FD0AC086E89DE01B
:1049B0000E949687812F0E9434B28AE00E941532AD
:1049C0003EA13093040F0C94593060E080E50E94C2
:1049D000824981110C94B52D81E40E9442478823BD
:1049E00029F060911708062F10E002C00FEF10E0C9
:1049F00089E40E946649882399F00E94E74690E086
:104A00001816190614F481E090E026E0289FF001C2
:104A1000299FF00D1124EA5CF94E0481158108C02C
:104A200083E50E946649882319F00E94D7468B01CE
:104A3000B8010F3F110519F010F06FEF70E06093AF
:104A400017080C94B52D60E080E50E948249811121
:104A50000C94B52D109217080C94B52D8EE40E947D
:104A60006649882311F40C94B52D0E94D7466093B3
:104A70004C0470934D0480934E0490934F040C9417
:104A8000B52D83E50E944247882331F060E083E53D
:104A90000E9482498093810D0E948C8887EA97E06A
:104AA0000E9496878091810D882369F1F6E1EF2EAF
:104AB000FBE0FF2E00E010E020E08091810D90E00F
:104AC000A0E0B0E0002E04C0B695A7959795879515
:104AD0000A94D2F780FF0EC0DD24D394D20E222395
:104AE00019F08CE20E941532F701859194910E9491
:104AF00096872D2D0F5F1F4F82E0E80EF11C0530C9
:104B00001105D9F6E8CD83EA97E0E3CD1092030FC3
:104B1000109265020C94B52D41E060E070E08EEAE1
:104B200097E00E94F8300C94B52D0E94A9300C94A7
:104B3000B52D83E50E946649882381F00E94E746EF
:104B4000282F30E02D33310524F4809300020C949B
:104B5000B52D8CE3809300020C94B52D0E948C88B7
:104B60004091000250E060E070E08CEB97E00E9422
:104B700039888AE00E9415320C94B52D8091810D00
:104B800083FF02C00C94B52D89E40E9466498823F6
:104B900011F40C94232F0E94E74690E01816190692
:104BA00014F481E090E026E0289FF001299FF00DA9
:104BB0001124EA5CF94E628173810C942D2F0E94BE
:104BC0005842D3C783E50E946649882309F4CDC7BC
:104BD0000E94E746182F90E0CD970CF01CE310934D
:104BE00053030F94EF1E6B017C01212F30E0A8EEE0
:104BF000B3E00F94744BC60ED71EE81EF91EC09288
:104C00004F03D0925003E0925103F0925203ADC78C
:104C10000E943275AAC70E94F7B20E94BEBC0E94D1
:104C200083D00E94F23068EE73E080E090E00E9452
:104C300013860E94F53060E083EC97E00E94AEC4DA
:104C400094C78091340F8F7E80628093340F8DC71C
:104C500083E50E9466498823E9F00F94EF1E609374
:104C600082167093831680938416909385160E9403
:104C70000F4720E030E04AE754E40F9430450F94AA
:104C8000CA4C6093010270930202809303029093D6
:104C900004026BC78091D11684FF02C00C943E2F92
:104CA0008091D31687FF02C00C943E2F8091D416BA
:104CB000837011F00C943E2F0C946F2F83E50E94AB
:104CC0004247882309F451C70F94EF1E6093821660
:104CD0007093831680938416909385160E940F47D5
:104CE00020E030E04AE754E40F9430450F94CA4C7A
:104CF0006093540370935503809356039093570326
:104D000034C70E944B6F87FD30C79091D11694FD38
:104D100004C09091D31697FF0AC077EFC72E72E0B8
:104D2000D72EE2E8EE2EEDE0FE2E10E009C09091C5
:104D3000D416937091F7682F81E00E94A07815C770
:104D4000F60181916F010E946649882309F46DC0C4
:104D5000133009F063C00E940F474B015C0120E053
:104D600030E040EA51E40F94CA4487FF4EC0A501E9
:104D700094016091A20D7091A30D8091A40D90916A
:104D8000A50D0F94514C2B013C019B01AC0160918E
:104D9000FB077091FC078091FD079091FE070F942F
:104DA00030456093FB077093FC078093FD07909359
:104DB000FE07A30192016091B20D7091B30D809135
:104DC000B40D9091B50D0F9430456093B20D709372
:104DD000B30D8093B40D9093B50D60910B08709155
:104DE0000C0880910D0890910E080F94CF44A301F8
:104DF00092010F9430450F94CA4C60930B08709346
:104E00000C0880930D0890930E088092A20D90924A
:104E1000A30DA092A40DB092A50D07C00E940F474C
:104E2000F701648B758B868B978B1F5FF4E0EF0E19
:104E3000F11C143009F084CF0E944ED096C60F9416
:104E4000262188EC92E10E94BAB98FC688E199E0E8
:104E50000E94968760E088E099E00F94C73060E098
:104E600083EF98E00F94C73061E08BE696E10F94F2
:104E7000C73061E088EE98E00F94C73061E088EDBC
:104E800098E00F94C73060E08FEC98E00F94C73043
:104E900061E085EC98E00F94C73061E08BEB98E01F
:104EA0000F94C73061E084EB98E00F94C73061E065
:104EB0008CEA98E00F94C73061E08EE998E00F9497
:104EC000C73060E080E998E00F94C73060E081E887
:104ED00098E00F94C73060E083E798E00F94C73004
:104EE00060E08DE598E00F94C73060E08CE498E0D6
:104EF0000F94C73060E08DE398E00F94C73061E015
:104F000086E398E00F94C73060E081E298E00F9468
:104F1000C73060E083E198E00F94C73060E080E044
:104F200098E00F94C73060E083EF97E00F94C730AC
:104F300060E08EEE97E00F94C73061E081EE97E07D
:104F40000F94C73060E08DEC97E00F94C7300DC62A
:104F50008091CB169091CC16009709F487CBFC0179
:104F60002081222309F482CB60E00E9444C5FDC564
:104F70000091CB161091CC1694E0F12C40E09150AA
:104F800029F1F8018081282F2B7F213421F4218100
:104F90002133E1F408C08035C9F4F80181818053E0
:104FA0008A3048F013C0813421F0853421F441E087
:104FB00002C0FF24F39498012E5F3F4F89012F5FB9
:104FC0003F4FF80180818032C9F3D9CF41110E944F
:104FD0008C88FF2021F08DEE99E00E949687C80111
:104FE0000E942033C2C50E94DFBBBFC51092D1050D
:104FF0001092D0050E9411BCB8C560E070E083E556
:105000000E947349823038F00E94888881EF99E0CD
:105010000E949687AAC58C01112788E40E946649E0
:105020008823E1F00E940B478A3A910544F00E94E0
:105030000B478530914034F40E940B4705C08AEA43
:1050400090E002C084E091E026E0209FF001219FE3
:10505000F00D1124EA5CF94E9183808382E40E9472
:1050600066498823D9F00E940B47059744F00E94B7
:105070000B478937910534F40E940B4705C085E042
:1050800090E002C088E790E026E0209FF001219F99
:10509000F00D1124EA5CF94E9383828386E40E942A
:1050A0006649882309F461C50E940B4797FD09C032
:1050B0000E940B478F3F910509F034F40E940B4783
:1050C00005C080E090E002C08FEF90E026E0209FD6
:1050D000F001219FF00D1124EA5CF94E9583848341
:1050E00044C560E070E083E50E9473498C01833021
:1050F00091056CF460E070E080E50E94734911272F
:10510000F801E559F14F80830E94DF7B2EC541975E
:105110000CF42BC50E947A7F28C56FEF7FEF83E5E3
:105120000E94734997FD07C0803191050CF01DC5A1
:105130000E941D7F1AC580915E080E941D7F15C5C3
:105140000E941F7612C50E944B6F182F87FD0DC558
:105150000091490F84E40E946649882309F4C2C67D
:105160000E940F476B017C0120E030E0A9010F9401
:10517000CA44882339F124E01202F0011124EB5BC8
:10518000F04FC082D182E282F38220E030E0A901B8
:105190006091450F7091460F8091470F9091480F95
:1051A0000F94CA4481110CC080E090E0A0EEBFE3F0
:1051B0008093450F9093460FA093470FB093480FED
:1051C00001E090C680E08093490F0E94DBCECDC401
:1051D0000E944B6F87FDC9C457EFC52E52E0D52EF4
:1051E00062E8E62E6DE0F62E10E0F60181916F0187
:1051F0000E944247882331F10E940F476C8F7D8FB8
:105200008E8F9F8F80E1E8EAF2E0DE011196019037
:105210000D928A95E1F79E012F5F3F4F40E856E1DE
:10522000612FCE014C960E9479CF6C8D7D8D8E8D35
:105230009F8D0F94CA4CF70160837183828393839F
:105240000E9407D01F5FF4E0EF0EF11C143069F6E6
:105250008CC40E944B6F87FD88C447EFE42E42E068
:10526000F42E02E81DE0F70181917F010E94424780
:10527000882339F00E940F47F80164A375A386A321
:1052800097A30C5F1F4FFDE002391F0761F76DC444
:105290008091D21687FD2BC68091D3168E7009F0AF
:1052A00026C64091B60D5091B70D6091B80D709122
:1052B000B90D83E19AE00E9457884091BA0D509150
:1052C000BB0D6091BC0D7091BD0D8DEA93E30E9402
:1052D00057884091BE0D5091BF0D6091C00D7091E7
:1052E000C10D83E296E30E9457888AE00E9415323E
:1052F0003CC40E94DB7839C436E5E32E3FE0F32E50
:1053000010E088E5810F0E944247882351F00E94F7
:105310000F47F7016083718382839383812F0E94FB
:10532000F0D41F5FF4E0EF0EF11C133051F70E9430
:105330002EBB1BC483E50E944247882351F00E9484
:105340000F47609315167093161680931716909357
:10535000181686E40E944247882381F00E940F4776
:1053600020E030E040E752E40F94514C609319166E
:1053700070931A1680931B1690931C168AE50E9450
:105380004247882351F00E940F4760931D16709387
:105390001E1680931F169093201687E50E944247A1
:1053A000882309F4E2C30E940F4760932916709383
:1053B0002A1680932B1690932C16D7C383E50E9450
:1053C0004247882351F00E940F4760932116709343
:1053D0002216809323169093241686E40E94424757
:1053E000882381F00E940F4720E030E040E752E43C
:1053F0000F94514C609325167093261680932716B0
:105400009093281682E50E944247882381F00E94EB
:105410000F4720E030E040E752E40F94514C609396
:10542000311670933216809333169093341687E5B5
:105430000E944247882309F498C30E940F47609353
:105440002D1670932E1680932F16909330168DC3C1
:1054500083E50E944247882309F487C30E94FB46E4
:10546000809314160E94DE6E80C383E50E94664915
:10547000882331F00E940B4790933F0280933E02B5
:105480008091D1169091D216A091D316B091D416D6
:10549000892B8A2B8B2B09F068C360913E02709197
:1054A0003F0283E29AE00E94688885E20E941532FA
:1054B0008AE00E94153259C30E944B6FF82E87FD77
:1054C00054C383E50E9466490F2D0F2C000C110B6D
:1054D000882361F10E940B47F801EE0FFF1FE05C8B
:1054E000FD4F91838083000F111F000F111F980142
:1054F0002A5A3D4F7901BC01990F880B990B0F94E3
:10550000D1442AE037ED43E25CE30F943045F801E3
:10551000E454F84F20813181428153810F9430450A
:10552000F70160837183828393831FC30E948C88F9
:1055300085E40E94153280E38F0D0E941532000F22
:10554000111FF801E05CFD4F6081718187E29AE0F4
:105550000E94688885E20E9415328AE00E94153216
:1055600004C38AE50E946649811105C083E50E9453
:105570006649882331F10E940F4720E030E040E087
:1055800050EC0F94CA4487FDFDC40E940F4720E0F1
:1055900030E040E050E40F94514D18160CF4EDC487
:1055A0000E940F4720919E0D30919F0D4091A00DBC
:1055B0005091A10D0F9430450F94C34CCB010F9423
:1055C000702D8091D31687FDE2C48091D41683702C
:1055D00009F0DDC40E948C88609186167091871650
:1055E00087EC95E20E9468888AE00E941532BDC26D
:1055F00064E071E083E50E940C768C0168EE73E054
:1056000080E50E940C768938F3E19F0710F088E866
:1056100093E1B8010E9481C4A8C260E085E40E94C1
:105620008249811173C080E50E944247882351F06E
:105630000E940F476093A5167093A6168093A71635
:105640009093A81689E40E944247882381F00E9423
:105650000F472CEA35EC47E25EE30F943045609348
:10566000A9167093AA168093AB169093AC1684E497
:105670000E944247882381F00E940F472CEA35ECB4
:1056800047E25EE30F94514C6093AD167093AE16F3
:105690008093AF169093B0160E948C884091A51607
:1056A0005091A6166091A7167091A81687E39AE00C
:1056B0000E9457882CEA35EC47E25EE36091A91618
:1056C0007091AA168091AB169091AC160F94514C24
:1056D000AB01BC0183E39AE00E9457882CEA35ECC9
:1056E00047E25EE36091AD167091AE168091AF1601
:1056F0009091B0160F943045AB01BC018FE29AE057
:105700000E9457888AE00E9415322FC20E94888822
:105710008BE39AE00E94968728C20E9472D025C22D
:1057200081E00E9445A50E942EBB1FC28091D11628
:1057300083FD33C48091D316867009F02EC40E9475
:105740008C888DE69AE00E94968780915C020E9488
:1057500030888AE00E94153240918A0250918B0273
:1057600060918C0270918D028DE49AE00E945788BE
:105770008AE00E941532F9C10E949047F6C16FEF8E
:105780007FEF89E40E947349082F6FEF7FEF8AE46F
:105790000E947349182F8AE50E946649811108C04A
:1057A00081E50E946649D82E882309F41BC401C0F4
:1057B000D12CC02E81E0800F853008F04CC0912E96
:1057C00081E0810F853008F046C00E940F472B0111
:1057D0003C01F02E07FDF12C07FF02C0F3E0CF2EB5
:1057E000812E17FD812C17FF02C0E3E09E2ECF14FF
:1057F00008F4BBC1E82C24E0F29E500111249E1451
:1058000040F10E2D10E0DD2071F0F501E00FF11FE9
:10581000EE0FFF1FEE0FFF1FEE5BF94E208131816F
:105820004281538103C020E030E0A9010A0D1B1D15
:10583000000F111F000F111F0E5B194EC301B201A3
:105840000F94CE4BF8016083718382839383E3943A
:10585000D6CFF394CCCF0E94888882EE96E00E9447
:10586000968783C10F94711481117FC108EB1BE1EE
:1058700024E732E03DA32CA3CE0101961C014EE4A7
:10588000C42E45E2D42E7C01F80165917591859175
:105890009491ECA1FDA181909190A190B190FDA374
:1058A000ECA3A50194010F94CD4B2B013C01F70112
:1058B000608371838283938320E030E040EA51EC7F
:1058C0000F94514D87FD0AC020E030E040EA51E4DA
:1058D000C301B2010F94CA4418162CF4F601849146
:1058E00018160CF486C3F70181909190A190B190A5
:1058F0007F0120E030E040EA51ECC501B4010F9493
:10590000514D87FDB5C320E030E040EA51E4C501C8
:10591000B4010F94CA4418160CF075C3A9C30E94B1
:10592000369A23C10F947A2620C161E083E50E9454
:105930008E4981270F94902618C181E08093FF152E
:105940000E94329F1092FF15882309F40EC10E9415
:105950008C888AED9AE00E94968707C180913B135C
:1059600082FF04C0806480933B13FFC083FFFDC0AF
:105970000F947B11FAC00E942074F7C00E944B6FF5
:10598000082F87FDF2C085E50E9442478823A9F1D0
:10599000E02E002E000CFF080E940F474B015C0117
:1059A00020E030E0A9010F94514D87FF04C0B7FA01
:1059B000B094B7F8B094C70123E0880F991F2A95D7
:1059C000E1F79C01245F394E7901F90180829182CF
:1059D000A282B38220E030E048E453E4C501B40180
:1059E0000F94514D18164CF480E090E0A8E4B3E415
:1059F000F70180839183A283B3838CE40E944247A2
:105A0000882309F4B2C0002E000C110B0E940F472E
:105A10006B017C0120E030E0A9010F94514D87FF1C
:105A200004C0F7FAF094F7F8F09420E030E048E48E
:105A300053E4C701B6010F94514D980193E0220F32
:105A4000331F9A95E1F7F901E45FF94E18162CF02F
:105A5000C482D582E682F78288C080E090E0A8E424
:105A6000B3E484839583A683B7837FC00E94AC711F
:105A70007CC00F94FA2D79C081E08093A507109225
:105A8000790560E083E50E948E4981116EC00E9415
:105A9000A7446BC083E50E944247882339F00E94E7
:105AA000FB46809335160E94614F5FC00E948C8830
:105AB00085EE9AE00E949687809135160E94308884
:105AC0008AE00E94153251C00E948D6F4EC00E9424
:105AD00020BC6D3371058105910520F082E19BE0CA
